:100000000C940F040C9447040C9447040C9447047C
:100010000C9447040C9447040C9447040C94470434
:100020000C9447040C9447040C9475270C943127C6
:100030000C94C8280C9447040C9447040C9447046F
:100040000C9447040C9447040C9447040C94470404
:100050000C9447040C94A4280C9447040C94470473
:100060000C9447040C9447040C9447040C944704E4
:100070000C9447040C9447040C9447040C944704D4
:100080000C9447040C9447040C9447040C944704C4
:100090000C9447040C9447040C9447040C944704B4
:1000A0000C9447040C9447040C9447040631FF0950
:1000B00074A1010975150026FF00952075088102BD
:1000C0000976150026FF00952075089102C00501EC
:1000D0000902A10185020901A100050919012905EB
:1000E00015002501950575018102950175038101B2
:1000F0000501093009311581257F950275088106B2
:1001000009381581257F950175088106050C0A3887
:10011000021581257F950175088106C0C00501097A
:1001200080A101850319012AB700150126B70095A2
:100130000175108100C0050C0901A1018504190198
:100140002AA002150126A002950175108100C006A3
:1001500060FF0961A1010962150026FF0095207565
:100160000881020963150026FF0095207508910299
:10017000C005010906A101050719E029E7150025B9
:10018000019508750181029501750881010507191E
:100190000029FF150026FF00950675088100050857
:1001A00019012905950575019102950175039101C4
:1001B000C05B735D000A002530313662003A2000D2
:1001C00025303258000A722F6320303132333435F3
:1001D000363738394142434445460A00FD377A589C
:1001E0005A000004E6D6B4460200210116000000C1
:1001F000742FE5A3E004E201C25D003D8889C65486
:1002000036C3174FE4DE8EC694E3232AAF0D87CBA7
:10021000617E3F275C89E50BB43F29F27703DBCC95
:10022000C565C4FE90EB98C236A3CE848A3B706845
:1002300014E4087BA315FD7B578E05EB30EE0A8B8B
:10024000F2EA73EB02FF113518B92EF4E7E788CE16
:10025000444B793E31FD94E4134435F539F6A9E574
:1002600030E867DAFCA66108C35DCEDBFA22AD4157
:10027000D0376F50A07DDB1BD2BDD4DA2D39005DA5
:1002800091B39890D2060DF565398D561084BFB2A2
:10029000BD5C8A69977B919EE6B8ADEBFCAE5926B2
:1002A0004CC406DB73A72834DC8577C7B8CD2D296D
:1002B0009C102B10819108EE2F6889873C9C82F757
:1002C000AD3175B92F948C20FEB9FF03C57179D07B
:1002D00056FA01C1CF83148A85538F2A1D7A5AEAB0
:1002E00015DD378A808E4B5B12D17E4EF98BAE8C3A
:1002F000C5798BF4443007DF790AC1DB9BC24D39E5
:10030000FB2DABB366BD894D992E6EEE145227BB03
:100310002673AEC6211B657F31180E32549DD963FA
:1003200062D9C9750332D1FEF5487A21EF8A955218
:10033000AE8E8B096E33FF6D9C4DDD1FCAA200C4CB
:100340007C0378DF59377870CE380F471124C250BC
:100350005C8C64B5E2984C4F4C7B86CD7F418FAC72
:10036000BE36A7B8AEF73054FEEADC7F8B4262E6B9
:10037000EB58D86C7D8C8AB50A4D0E956AC65551DE
:10038000EC3177085CFA0C1EA6F643540162F23198
:10039000A93CDE13FB9CFAB01BFC935EBE403D9E65
:1003A000FC326353FC3BAB8C3E7B921ABC61882BC6
:1003B00028F08C80FF64F1FD3664F03217000000F5
:1003C000685ECFB4745FE3650001DE03E3090000FB
:1003D0000B06DA67B1C467FB020000000004595A3B
:1003E000290A002575002F002575005D2800256469
:1003F0000020002564002000256400200025640002
:100400007C0025303258006D6F7573656B657920FF
:100410005B62746E7C782079207620685D28726536
:10042000702F61636C293A205B0029001E001F00B9
:1004300020002100220023002400250026002700A0
:100440002D002E002A004C002B0014001A0008007A
:10045000150017001C0018000C00120013002F00DC
:10046000300031004B00390004001600070009007D
:100470000A000B000D000E000F00330034002800AE
:1004800000004E00E10000001D001B0006001900E6
:10049000050011001000360037003800E10052005E
:1004A0004D00E000E300E2000000000000002C002E
:1004B00000000000E6000151500051004F00000014
:1004C00035003A003B003C003D003E003F0040004C
:1004D000410042004300440045004C00010001007F
:1004E000010001000100005C0100010001000100A9
:1004F000010001000100010001004A0001000100AB
:1005000001000100010001000100010001000100E3
:1005100001000100010000004D0001000000010089
:1005200001000100010001000100010001000100C3
:1005300001000100010001000100010001000000B4
:1005400000000000010000000000010001000100A7
:100550000100010000000100010001000100010094
:100560000100010001000100010001000100010083
:100570000100010001000100010001000100010073
:100580000100010001000100010001000100010063
:100590000100010001000100010001000100010053
:1005A0000100010001000100010001000000010044
:1005B0000100000001000100010001000100010034
:1005C0000100010001000100010001000100010023
:1005D0000100010000000000000001000000000018
:1005E0000100010001000100010000000100010004
:1005F00001000100010001000100010001000100F3
:1006000001000100010001000100010001000100E2
:1006100001000100010001000100010001000100D2
:1006200001000100010001000100010001000100C2
:1006300001000100010001000100010001000100B2
:1006400001000000010001000000010001000100A4
:100650000100010001000100010001000100010092
:100660000100010001000100010000000000000085
:100670000100000000000100010001000100010074
:1006800000005B435D005B445D005B535D005B57B6
:100690005D005B525D0009027B00040100A0FA09C5
:1006A00004000001030101000921110100012240A1
:1006B000000705810308000109040100020300008E
:1006C00000092111010001222200070582032000F8
:1006D00001070503032000010904020001030000D3
:1006E0000009211101000122810007058403200077
:1006F00001090403000203000000092111010001A7
:1007000022220007058503200001070505032000BC
:100710000112010002000000084D434D36010001A6
:100720000203011C037600690061006C003A006658
:1007300000360034006300320062003300630000C2
:10074000000E03460075006A00690036003500009F
:1007500000160343004D004D002E00530074007539
:1007600000640069006F0000000403090400000039
:100770000000000000000000000000000000000079
:100780000000000000000000000000000000000069
:10079000007E0F00D4FFFFFFC700000078000000BC
:1007A00000000000002A2B280000000000000000CC
:1007B000000000000000000029000000002C1E3492
:1007C00020212224342627252E362D3738271E1F98
:1007D000202122232425263333362E37381F0405C3
:1007E000060708090A0B0C0D0E0F10111213141531
:1007F000161718191A1B1C1D2F3130232D3504050F
:10080000060708090A0B0C0D0E0F10111213141510
:10081000161718191A1B1C1D2F3130354C001124C6
:100820001FBECFEFDAE0DEBFCDBF04B603FE18C0B7
:1008300080917D0490917E04A0917F04B09180040A
:100840008730904BA740B04B59F410927D04109222
:100850007E0410927F0410928004E0E0F8E3099592
:1008600011E0A0E0B1E0E2EAF2E602C005900D92EC
:10087000A037B107D9F724E0A0E7B1E001C01D928D
:10088000AD37B207E1F70E94EF280C9424310C94A5
:100890000000FF93EF93E0917001F09171013097A8
:1008A00009F00995EF91FF910895FC018591803041
:1008B00011F0EFDFFBCF0895FF27E0E230E247FFC2
:1008C0000CC0419597FF09C0EDE260957095809549
:1008D0009095611D711D811D911D27FF02C02195FD
:1008E00030E350E2AA27660F771F881F991FAA1FBF
:1008F000A41710F0A41B63955A95A9F7AA3008F025
:10090000A95FA05DAF93F395611571058105910510
:1009100041F7ED3211F4EF93F395F21718F43F938A
:10092000F395FBCF8F91B5DFFA95E1F70895E99143
:10093000F9918591803021F0853219F0AADFF9CF45
:10094000089520E0E89455915532C1F3503311F4E5
:10095000689455915A3348F4505390F3220F022E65
:10096000220F220F200D250FF4CF0EF4219589912F
:100970009991533619F3533729F1533559F1BC0185
:1009800088279927E8945C3621F489919991689495
:100990005591543639F446EF7EF077FF0DC08FEF56
:1009A0009FEF0AC055374AE039F0583540E121F051
:1009B000523642E009F00895FF93EF937DDFEF9107
:1009C000FF91B7CFFF93EF93FC0181918030B9F392
:1009D00060DFFBCFFF93EF9368DFF1CFDF93CF931F
:1009E000CDB7DEB72596A3DFCF91DF910895E8ED6F
:1009F000F0E080818E7F80831092E2001092DA0016
:100A00001092E100A0EEB0E08C9181608C93808127
:100A10008F77808319BCA7EDB0E08C918E7F8C938B
:100A200080818F7E80831092650408952091E40078
:100A30003091E50095E6A9012091EC00822F8170AC
:100A400020FF06C08091E80080FF06C080E0089586
:100A50002091E80022FD1AC080917B04882389F050
:100A6000853089F08091EB0085FD0FC02091E40076
:100A70003091E50042175307F9F29150E1F684E016
:100A8000089582E0089583E0089581E00895EF924B
:100A9000FF920F931F93CF937C018B010E94160549
:100AA000C82F811117C08091E80085FD0BC080918F
:100AB000E8008E778093E8000E941605882399F35A
:100AC000C82F08C0F70181917F018093F100015088
:100AD000110949F78C2FCF911F910F91FF90EF9043
:100AE0000895CF93FC0180917B04843001F5C0917F
:100AF000E900CF702091EC00922F917020FD90E8DA
:100B0000C92B82E08093E9008091E80080FF0CC04F
:100B100050E040E060E270E0CF010E944705809124
:100B2000E8008E778093E800CF70C093E900CF9102
:100B300008958091730487FF13C08091E80082FFBD
:100B400006C08091E8008B778093E80004C0809114
:100B50007B048111F2CF089580917B048823D9F31F
:100B60008091E80080FFF8CF8091E8008E77ECCF8D
:100B7000982F9093E900242F762F50E0891731F0B9
:100B80007091EC002091ED005091F00021FD07C024
:100B90009F5F973071F78093E90081E0089530916D
:100BA000EB003E7F3093EB003091ED003D7F3093C2
:100BB000ED003091EB0031603093EB007093EC006E
:100BC0002093ED005093F0002091EE0027FDE0CF40
:100BD00080E00895B0E0A0E0E0EFF5E00C946C3028
:100BE000C8EDD0E088818F7E8883E7EDF0E08081DA
:100BF0008160808384E082BF81E080936504888186
:100C00008E7F888302EE10E0F80110821092DA00E5
:100C100081EEC82ED12CF601108288818F778883CF
:100C200088818068888388818F7D888319BC109231
:100C30007B0410927204109271041092700490EE72
:100C4000E92EF12CF70180818B7F80838881816080
:100C5000888342E060E080E00E94B805F601808170
:100C60008E7F8083F80180818160808380818860AD
:100C70008083F70180818E7F808388818061888373
:100C8000CDB7DEB7E8E00C948830FC0180917904A0
:100C900090917A0486179707A0F06115710529F4E1
:100CA0009091E8009E779093E80090E061157105BF
:100CB00051F4911108C08091E80082FF34C080E0B7
:100CC0000895BC01F2CF80917B048823C1F1853067
:100CD000C1F18091E80083FD30C08091E80082FD81
:100CE000EACF8091E80080FFE1CF8091F30020916E
:100CF000F200382F6115710519F02830310558F0D0
:100D000091E02830310509F090E02091E8002E773D
:100D10002093E800CBCF81918093F100615071095D
:100D20002F5F3F4FE7CF80917B04882341F08530D0
:100D300041F08091E80083FFBECF81E0089582E01A
:100D4000089583E0089508958091670408959C01B3
:100D50004FB7F89480915B0490915C04A0915D047E
:100D6000B0915E044FBF821B930B08952FB7F89488
:100D700060915B0470915C0480915D0490915E04CD
:100D80002FBF08952FB7F89480915B0490915C0475
:100D9000A0915D04B0915E042FBF08959C01FC01F9
:100DA00032969FEF80E04191461751F09F3F19F432
:100DB000411101C0982F8F5F8630A9F79F3F09F43A
:100DC0000895290F311D97FD3A95F9016283089521
:100DD00020915804309159042817390771F09093E5
:100DE000590480935804E0915604F09157043097C9
:100DF00021F00084F185E02D099508952091540497
:100E0000309155042817390771F090935504809359
:100E10005404E0915604F0915704309721F0068075
:100E2000F781E02D09950895E0915604F09157045B
:100E3000309729F00190F081E02D0995089580E028
:100E40000895CF93DF93EC01409142045091430405
:100E500060914404709145042FB7F89480915B042D
:100E600090915C04A0915D04B0915E042FBF841B3F
:100E7000950BA60BB70B843F9140A105B10518F562
:100E80008091420490914304A0914404B0914504A0
:100E900080933E0490933F04A0934004B093410498
:100EA00084EF91E0A0E0B0E080933A0490933B049B
:100EB000A0933C04B0933D04D0934A04C0934904EA
:100EC000DF91CF9108950E94B60660933E0470931F
:100ED0003F04809340049093410482E390E0A0E0BB
:100EE000B0E0E2CFFC018481862351F49281992302
:100EF000B9F06923808583FF05C081E061110FC0CF
:100F000080E00895892F8F7092959F70982B862F7F
:100F10008F7062956F70682B81E09613F1CF089502
:100F200081E0FDCF452B39F0682381E06F3F09F068
:100F300080E08170089581E0FCCFDC01609136048F
:100F400080913704962F891301C00895292F30E02E
:100F5000F901EE0FFF1FE25DFB4F408151814A17FF
:100F60005B07A1F487E08A9FA0018B9F500D11249D
:100F70004A505C4F81E0FA0184839613E6CF2F5FDD
:100F80003F4F237033272093360408952F5F3F4F40
:100F9000922F9370D8CF1092930310929203E6EFA2
:100FA000F3E08581811102C014821682379684E0B5
:100FB000EE32F807B1F70895E1E4F2E090E080E066
:100FC00066E976E24DEB56E227E136E27783668307
:100FD00051874087338722879587848701963E967D
:100FE0008830910599F7089581152CE5920741F411
:100FF00020918C0330918D03232B11F490E080E03D
:10100000089590912B02803F59F480912C0287FF24
:101010000DC010922C0291110BC01092230208C037
:10102000813F81F480912C0218169CF3992381F062
:1010300080912D0290912E02892B09F064C01092AC
:1010400021020895823F49F497FFF0CF10922B02BE
:1010500080912C028111ECCFE0CF833F19F4191657
:10106000ACF3E4CF20912D02893F29F41216F4F657
:1010700010922D02DBCF8A3F19F427FFD7CFF8CF8C
:1010800020912E028B3F29F427FFD0CF10922E0201
:10109000CDCF8C3F19F41216CCF3C8CF843F31F476
:1010A00080912A028E7F80932A02C0CF853F21F44F
:1010B00080912A028D7FF7CF863F21F480912A020A
:1010C0008B7FF1CF873F21F480912A02877FEBCF7E
:1010D000883F21F480912A028F7EE5CF8D3F31F445
:1010E000809122028E7F80932202A0CF8E3F21F436
:1010F000809122028D7FF7CF8F3F09F097CF8091AB
:1011000022028B7FF0CF08958091220280FD16C0CD
:1011100081FD16C082FD16C0809121028823A1F0B6
:10112000883280F428E0829FC001112468E270E0D8
:101130000E944130862F672B39F0089582E0089590
:1011400084E0089588E0089581E008958091220266
:1011500080FD14C081FD14C082FD16C08091230261
:10116000882381F08E3180F420E5829FC001112414
:101170006EE170E00E944130862F089584E1089569
:1011800088E2089588E0089580E50895803F31F46D
:101190000E94A608819580932C020895813F19F43E
:1011A0000E94A608F8CF823F31F40E94A6088195DC
:1011B00080932B020895833F19F40E94A608F8CF6C
:1011C000893F29F40E94840880932D0208958A3F64
:1011D00021F40E9484088195F7CF8B3F31F40E945F
:1011E0008408819580932E0208958C3F19F40E9403
:1011F0008408F8CF843F31F480912A028160809383
:101200002A020895853F21F480912A028260F7CF57
:10121000863F21F480912A028460F1CF873F21F438
:1012200080912A028860EBCF883F21F480912A02C6
:101230008061E5CF8D3F31F48091220281608093FF
:10124000220208958E3F21F4809122028260F7CF1E
:101250008F3FB9F7809122028460F1CFF894E82F94
:10126000E295EF70F0E031A1282F2F7081E090E03F
:1012700001C0880F2A95EAF7982F9095932391A3A0
:1012800092A1892B82A3789408959091020292FFF3
:1012900006C0282F28712830F9F4877F846093FFD7
:1012A00006C0282F28712831F1F4877E84612091AF
:1012B000030220FF06C0382F38713830D9F4877FF9
:1012C000816021FF06C0282F28712831D1F4877E44
:1012D000816194FD877E0895282F24712430F9F6CA
:1012E0008B7F8860DCCF282F2471243101F78B7E1F
:1012F0008861DDCF382F3171313019F78E7F8860EA
:10130000E0CF282F2171213121F78E7E8861E1CF36
:10131000CF93DF93EC0182389105B1F108F040C022
:101320008133910509F49DC048F58932910509F48E
:101330008DC08A9709F49CC0C11521E5D20708F039
:10134000C3C0C11530E5D30708F01EC1C83ED105A2
:1013500008F0A3C0C13ED10588F5C83AD10508F010
:101360008EC0C53AD10508F007C1C130D10531F1B1
:10137000209721F1C430D10508F545C0853391058A
:1013800009F45FC0C997C1F680910202837009F029
:1013900044C18091030283FF11C0C9E2D0E00EC0B6
:1013A000833E910599F170F4803E910501F1823EF2
:1013B000910511F68091020282FD21C0CE01DF91DC
:1013C000CF910895863E910561F1873E910571F1B7
:1013D000843E910509F0B0CF8091030281FFEECFEA
:1013E00080910202C7EED0E084FD0DC0E7CF80916E
:1013F000020280FD33C09091030290FFDFCFC3EE65
:10140000D0E084FFDBCFD0E0C0E0D8CF80910202F3
:1014100082FD00C19091030290FDFFC084FFCECFFA
:10142000F2CF8091020283FDDDCFC8CF809102020E
:1014300083FDF6C09091030291FFF0CFC4EED0E09F
:10144000BDCF8091020285FFB9CFA7CF8091020264
:1014500085FDE9C08091030283FFB0CFC9E3D0E0EE
:10146000ADCF8091020286FFA9CFCAE2D0E0A6CF1D
:101470008091020286FFA2CFC1E3D0E09FCFCF3B95
:10148000D10508F6C85AD0E0CC0FDD1FC65EDE4F8E
:101490000990D881C02DD46491CFC11540E2D40702
:1014A00058F4C11581E0D80708F088CFC03FD105B6
:1014B00008F4A9CFD06582CFC11520E4D20708F483
:1014C000A2CFDF70D06A7ACFC11535E5D30718F502
:1014D000C11544E5D40708F085C0C11583E5D807D8
:1014E00008F06CC0C11522E5D20708F462C0CE0135
:1014F0008370992721E030E002C0220F331F8A95C4
:10150000E2F7C695C69580E2C89FE0011124C22B80
:10151000D32BDC6853CFC11539E5D307A8F4C11527
:1015200048E5D40708F063C0C11586E5D80708F080
:101530006ACF8C2F0E944509C82FD0E0DC2FCC2722
:10154000CC27DF71D0623ACFC1152AE5D20708F463
:1015500053C0CE0190568115904208F054CF8D2F84
:101560008F710E94450990E0982F882788279F71E6
:101570009C012C2BE901E6CFC55AD0E0C95EDE4FB5
:10158000C881D0E0D0641ACF2C2F269526952370E1
:1015900040E2249F900111248C2F8370C1E0D0E0A1
:1015A00002C0CC0FDD1F8A95E2F7C22BD32BDD687A
:1015B00005CFDC2FCC27C16FD06A00CFCE0183705E
:1015C000992721E030E002C0220F331F8A95E2F70D
:1015D000C695C69540E2C49FE0011124C22BD32BCF
:1015E000DA68ECCEDC2FCC27C46FD06AE7CEDC2FD4
:1015F000CC27C06FD06AE2CE8C2F8F700E94450935
:1016000034E0D695C7953A95E1F7CF709C2FEC0161
:10161000D069D4CEC2EED0E0D1CEC0EED0E0CECEF6
:10162000C6EED0E0CBCEC5E3D0E0C8CE8091F301CA
:10163000882331F01092F3011092F2011092F1011F
:1016400008958095909150049823909350040895A4
:10165000809590915104982390935104089510928D
:10166000E8011092E7011092E6010895E4E7F1E045
:101670009191891303C0DF0111971C9291E0EA3721
:10168000F907B1F708958091E5019091A4019813AD
:1016900001C008958F5F8770FACF292F953078F5B4
:1016A0008F3068F590E03FE0239F800D911D11245D
:1016B000682F677023E0969587952A95E1F7FC01DE
:1016C000EE0FFF1FE80FF91FE258FE4F50E040E019
:1016D00080E0219130E0062E02C0369527950A94CD
:1016E000E2F721703327042E01C0220F0A94EAF793
:1016F000822B4F5F5F4F4330510559F7089580E0CB
:101700000895292F953098F58F3088F590E03FE0C7
:10171000239F800D911D1124282F277041E001C0C7
:10172000440F2A95EAF723E0969587952A95E1F7E5
:10173000FC01EE0FFF1FE80FF91FE258FE4F30E0EB
:1017400020E070E05191DF011197CB01022E02C021
:10175000969587950A94E2F7817081958527842371
:1017600085278C932F5F3F4F2330310559F708951C
:10177000829590E09C01220F331F220F331F2C7C97
:1017800095958795959587958373282B30E0C901AA
:10179000880F991F8A7A359527952575822B08958C
:1017A0009C013A9521153F4150F5FC01EE27F1705F
:1017B000BC0166277270AC01442754709C0122273B
:1017C000387094FF0EC080E1EF2B09F480E0672BA6
:1017D00009F08062452B09F08064232B89F0806832
:1017E000089581E0EF2B09F480E0672B09F0826017
:1017F000452B09F08460232B19F08860089580E060
:1018000008959FB7F894109263049FBF90917B0452
:10181000943009F048C02091E9002F703091EC001D
:10182000932F917030FD90E8922B25E02093E900F2
:101830002091EB0020FF34C02091EE0027FF30C044
:1018400020916204222321F02091E80025FF28C086
:101850001092620426E03091E80035FF14C08093B6
:10186000F1008091E80085FD27C08091E80080FFAD
:10187000FCCF8091E8008E778093E8009F70909372
:10188000E90080E0089530917B04343049F43091D0
:10189000EB0035FD05C0215041F481E080936204E6
:1018A0009F709093E9008FEF0895EFE9FFE0319783
:1018B000F1F700C00000CFCF8FB7F89421E020935C
:1018C00063048FBFDBCF80935F04709361046093E8
:1018D000600480917B048430F9F48093E9008FEFF9
:1018E0009091E800815095FD06C095ED9A95F1F72D
:1018F00000008111F5CF8091E80085FF0DC050E018
:1019000040E063E070E08FE594E00E94470580913D
:10191000E8008E778093E8000895BC0184E00E947F
:10192000630C0895BC0183E00E94630C08959C0140
:1019300084E08093E9009FEF8091E800915085FD5D
:1019400006C085ED8A95F1F700009111F5CF8091E1
:10195000E80085FF0CC050E040E066E070E0C9019F
:101960000E9447058091E8008E778093E8000895F3
:10197000CF93DF93EC0181E08093E9008FEF9091AA
:10198000E800815095FD06C095ED9A95F1F70000AD
:101990008111F5CF8091E80085FF14C050E040E050
:1019A00068E070E0CE010E9447058091E8008E77E4
:1019B0008093E80088E0FE01A8E6B4E001900D9273
:1019C0008A95E1F7DF91CF91089581E08093E0005F
:1019D00080E28093D8001092C9008FE19EE40197C5
:1019E000F1F700C0000087E090EBDC0180937D04FC
:1019F00090937E04A0937F04B093800488E19CE0E0
:101A00000FB6F894A895809360000FBE9093600085
:101A1000FFCFCF93DF93CFE6D3E060E0CE010E940B
:101A2000E8302196C11584E0D807B9F7DF91CF914E
:101A300008951F93CF93DF93122F8430E0F4653025
:101A4000D0F44F30C0F4C42FD0E0CC0FDD1F9EE1A6
:101A5000699FC00DD11D112496E9899FC00DD11D2C
:101A60001124632FCE0187960E94E830612FCE01AA
:101A700088960E94E830DF91CF911F910895CF930F
:101A8000C82F6FEF811166E083E290E00E94E8309A
:101A90006FEFC11162E384E290E00E94E8306FEFE3
:101AA000C1116FEE85E290E00E94E830CF91089579
:101AB000AEE1B0E0EEE5FDE00C946730A0908C0361
:101AC000B0908D0381E090E090938D0380938C0320
:101AD0008AE2C82E84E0D82E00E0760110E015C01E
:101AE000F40125913491472D612F802F0E94190D0B
:101AF00082E0880E911C7394EFE07E12F1CFFEE13C
:101B0000EF0EF11C1F5F153019F04701712CE8CF63
:101B10000F5F86E9C80ED11C0430F9F61A821982CB
:101B20001C821B821E821D8218861F8288EC90E018
:101B30009A8789870FE712E04AE050E0B801CE01AA
:101B400001960E940C31065F1F4F0F3CE2E01E071A
:101B500099F77E01FBE0EF0EF11C8AE0F70111928C
:101B60008A95E9F74AE050E0B801C7010E940C31BC
:101B7000065F1F4F0F31F3E01F07A1F77E0185E1DC
:101B8000E80EF11C8AE0F70111928A95E9F78FEFD0
:101B90009FEF9A8F898F87E08E8F4AE050E0B801DF
:101BA000C7010E940C31065F1F4F0F36F3E01F077D
:101BB000A1F7B0928D03A0928C036E96EDE00C9489
:101BC000833080E00E943F0D60E086E290E00E945A
:101BD000E8300E94580D0E94090D81E00E943F0DDF
:101BE00008959B01883070F49AE0899FB001112418
:101BF00061587D4F4AE050E0C9010E94CA3090E030
:101C000080E008958FEF9FEF0895AAE0B0E0EBE049
:101C1000FEE00C9472309C0137552F3F310509F0DE
:101C200068F4BE016F5F7F4F0E94F10D892B31F484
:101C300089859A852A96E2E00C948E3088EC90E0B3
:101C4000F9CF0F931F93CF93DF93843030F5653036
:101C500020F54F3010F5C42FD0E0CC0FDD1F2EE162
:101C6000629FC00DD11D112436E9839FC00DD11D87
:101C70001124CE0187960E94DA30082F10E0102F31
:101C80000027CE0188960E94DA309801282BC901DE
:101C9000DF91CF911F910F91089590E080E0F8CFF0
:101CA000462F2091900330919103232B99F4703F9C
:101CB00039F4603F79F480918E0390918F030895F9
:101CC000843040F4753030F46F3020F4672F0E9478
:101CD000210E089590E080E00895CF92DF92FF9268
:101CE0000F931F93CF93DF936C0100917C0480913D
:101CF000F401082BC7E0D0E010E0FC2EC8010C2E48
:101D000002C0959587950A94E2F780FD0CC0219753
:101D1000A0F7F12C8F2DDF91CF911F910F91FF90A4
:101D2000DF90CF900895B6018C2F0E94500E0E9434
:101D30008809019761F3EECFCF93DF93EC010E9406
:101D40006D0EBE010E94500E0E948809DF91CF9156
:101D500008950F931F93CF938C01FC01438154810D
:101D6000618180810E949207C82F81112AC0F801E9
:101D700086819781009791F00E94880992959F70C3
:101D80009630D1F080F4925F9F70923080F4803F63
:101D900019F058F4883E58F4C1E009C0808191815F
:101DA0000E949C0EEBCF9A5FEFCF843FA9F38C2F5C
:101DB000CF911F910F910895883E70F3813FB9F73D
:101DC000EBCFC0E0F4CFA5E0B0E0E9EEFEE00C948C
:101DD00071309C01FC01868197810097E1F485E0D8
:101DE000DE01119601900D928A95E1F7F9012281A9
:101DF00089819A81222399F0662389F00E946D0ED1
:101E0000182F682F89819A810E94810B69817A81BC
:101E1000812F0E94500E2596E3E00C948D300E9495
:101E20004D0B182FF3CF83E290E00E94DA3086301A
:101E300089F484E290E00E94DA30823359F485E23A
:101E400090E00E94DA3091E08F3E09F090E0892F17
:101E50008170089580E0FCCFCF9384E090E00E94F1
:101E6000DA30C82F82E290E00E94DA30982F8C2F6F
:101E7000CF910895AAE0B0E0E0E4FFE00C94683070
:101E800004E113E082E0C82E83E0D82E9FE1E92E22
:101E900093E0F92E27E0922E31E0A32E33E0B32E0B
:101EA00088248394D6010D931D936D014AE050E080
:101EB000B701CE0101960E94CA30F8013896DF01C1
:101EC000892D1D928A95E9F789819A81D801119609
:101ED0009C938E938F8112968C9312978D8113967B
:101EE0008C931397888514968C93149789851596EF
:101EF0008C9315978B819C8117969C938E93169744
:101F000018961C9218978A8587FF3CC01E961C92D3
:101F10001E921D9780FF03C0D80118968C9281FFF6
:101F200004C0F80190859260908782FF07C0D801B5
:101F300018969C911897946018969C9383FF04C000
:101F4000F80190859860908784FF07C0D8011896A3
:101F50009C911897906118969C9385FF04C0F80196
:101F6000808580628087015F1F4FFAE0EF0EF11CD1
:101F70008FE6E81683E0F80609F094CF2A96ECE0A5
:101F80000C948430F801B686A586C4CFAAE0B0E0F0
:101F9000ECECFFE00C946C30E1EBF2E080E5DF016B
:101FA0001D928A95E9F7E6EFF3E088E3DF011D92E1
:101FB0008A95E9F781EBC82E82E0D82E7F010FECDD
:101FC00012E0F701D182C0824AE050E0B801CE01B0
:101FD00001960E94CA3088E0FE013196D601019038
:101FE0000D928A95E1F789859A85D70113969C937E
:101FF0008E931297BAE0CB0ED11CE7E0EE0EF11CE7
:10200000065F1F4F0F31F3E01F07D9F62A96E8E06D
:102010000C9488308091240283FF7EC087E094E096
:102020000E94550480912A021F928F9382E094E0CF
:102030009F938F930E94EE0480E094E00E945504E9
:1020400080912B02282F082E000C330B3F938F9387
:102050008DEF93E09F938F930E94EE048BEF93E0BC
:102060000E94550480912C02282F082E000C330B5F
:102070003F938F9388EF93E09F938F930E94EE049A
:1020800086EF93E00E94550480912D02282F082EA0
:10209000000C330B3F938F9383EF93E09F938F93C9
:1020A0000E94EE0481EF93E00E94550480912E027D
:1020B000282F082E000C330B3F938F938EEE93E066
:1020C0009F938F930E94EE048BEE93E00E94550441
:1020D000809123021F928F9388EE93E09F938F93BA
:1020E0000E94EE0486EE93E00E9455048091220245
:1020F0001F928F9383EE93E09F938F930E94EE0441
:1021000080EE93E00E9455048DB79EB74C960FB6B3
:10211000F8949EBF0FBE8DBF0E94C2069C01909195
:102120002B0280912C02982B21F0309328022093CF
:10213000270290912D0280912E02982B21F030934E
:10214000260220932502E0915604F091570430971F
:1021500049F082E0809329020480F581E02D89E234
:1021600092E0099508958091510490915004892B33
:10217000809372018091F301882319F10E94C206B5
:102180002091F1013091F201821B930B8838934129
:1021900010F00E94160B809172019091F301892B2F
:1021A0008093720120E084E791E0FC013191CF013E
:1021B00031112F5FF1E08A379F07B9F721110E9493
:1021C000160B80914604809590917201892390911D
:1021D0004704892B8093720148E050E069EE71E07A
:1021E00082E791E00E94B630892BA9F088E0E2E70F
:1021F000F1E0A9EEB1E001900D928A95E1F7E0914E
:102200005604F0915704309731F00280F381E02DAD
:1022100082E791E009950895CF93DF93EC01EA8579
:10222000FB85309719F06C857D8509958B810E941F
:10223000210B8C810E94280B0E94B31086E0FE01C6
:1022400011928A95E9F7DF91CF910895CF93DF93AB
:10225000EC018D8181FD18C082608D8380915004D6
:102260009B81892B80935004809151049C81892B00
:10227000809351040E94B310E885F985309721F0CE
:102280006C857D85CE0109951092530410925204FD
:102290008D8180FD03C0CE010E940C11DF91CF9192
:1022A000089590E080E00E94FE0690E080E00E94A9
:1022B000E806109250040E94B31086E0E9E2F2E0D2
:1022C000DF011D928A95E9F71092230210922102F4
:1022D000109222020E940A10089580937C040E94AA
:1022E0005111089580917C04982F9670963021F4B6
:1022F00088600E946D110895877FFBCF21E030E058
:1023000001C0220F8A95EAF7209580917C048223F0
:102310000E946D1108959091E80180958923809322
:10232000E801282F277091F4282F082E000C330B7A
:102330009217130659F09091030292FF07C08595FA
:10234000859585950E947E110E942F0B0895CF934D
:10235000C0910302C2FB992790F9981791F080FB76
:10236000C2F9C09303026091020284E090E00E94EF
:10237000E8306C2F82E290E00E94E83082E00E9418
:102380008B11CF91089521E030E001C0220F8A9592
:10239000EAF780917C04822B0E946D110895909140
:1023A000030292FF10C098E0899F90011124622BD4
:1023B0006093E8010E94C3110E94C2069093E70156
:1023C0008093E60108950E94C31108958093F4015B
:1023D0000E945111089510925104E4E7F1E086E063
:1023E000DF011D928A95E9F70E9451110895AAE232
:1023F000B0E0EDEFF1E10C94713083E794E02091CF
:10240000F100DC012D93CD01B4E08B379B07B9F7C8
:1024100080917404833009F472C0B8F4813009F4F7
:1024200049C0823009F4B3C08091E80083FF9CC2A8
:1024300080917304909174049A3008F095C2E92F4A
:10244000F0E0EA5DFE4C0C9455308A3009F48EC001
:102450008B3009F471C0893039F78091730481326F
:1024600019F78091770490917804009711F0029702
:10247000D9F68091E800877F8093E8008091E8009A
:1024800082FF38C09091F3008091F200029731F4FE
:102490008091F100813011F0863021F48091F100BB
:1024A000809367048091E8008B778093E8000E9416
:1024B0009905BACF80917304813A09F0B5CF809124
:1024C000E800877F8093E8008091770490917804FA
:1024D000892B61F468E088E694E070E00E9445068C
:1024E0008091E8008B778093E8009ECF60E090E0D9
:1024F00080E0F3CF80917B048111C0CF95CF809194
:102500007304813A09F090CF809177049091780418
:10251000892B09F089CF8091E800877F8093E800BC
:102520008091E80080FFFCCF80910E018093F10044
:102530008091E8008E77B9CF80917304813209F0E1
:1025400073CF8091770490917804892B09F06CCF38
:102550008091E800877F8093E8000E949905809130
:10256000750480930E010E94EB115ECF809173047D
:10257000813209F059CF8091E800877F8093E8008D
:102580000E94990580917604809366044DCF8091D6
:102590007304813A09F048CF8091E800877F8093E7
:1025A000E8008091E80080FFFCCF80916604BECFF8
:1025B000803899F0823809F0D7C1809177048F7004
:1025C000873008F0D1C18093E9008091EB0085FB52
:1025D000882780F91092E90006C0809170049091DC
:1025E0007104911182609091E800977F9093E800C8
:1025F0008093F1001092F1008091E8008E77B0C1D5
:10260000882309F49EC1823009F0AEC1809175041F
:102610008111A1C1809177048F702FEF280F263090
:1026200008F0A2C18093E9002091EB0020FF93C144
:10263000933031F48091EB0080628093EB008BC18A
:102640009091EB0090619093EB0021E030E001C0AD
:10265000220F8A95EAF72093EA001092EA0080910F
:10266000EB008860EACF81117FC1109175041F775C
:102670008091E3008078812B8093E3008091E800D3
:10268000877F8093E8000E9499058091E80080FF91
:10269000FCCF8091E30080688093E30082E0111119
:1026A00083E080937B0460C18058823008F05CC175
:1026B00020917504309176042C3DE3E03E07A1F5AE
:1026C00083E08A838AE289834FB7F894DE01139608
:1026D00020E03EE051E2E32FF0E050935700E49118
:1026E00020FF03C0E295EF703F5FEF708E2F90E008
:1026F000EA30C0F0C7968D939D932F5F243159F730
:102700004FBF8091E800877F8093E8006AE270E025
:10271000CE0101960E9445068091E8008B77809358
:10272000E80022C1C096E7CF8091770490917804A9
:10273000432F55274330510509F44AC078F54130FD
:10274000510509F485C08BE790E0E6E9F6E04230F8
:10275000510509F009C12091E800277F2093E80086
:102760002091790430917A048217930708F49C0130
:1027700040E02115310509F070C041116EC0809113
:10278000E80082FDC9CF80917B04882329F285303F
:1027900019F28091E80083FFF2CFBECF413251059C
:1027A00009F447C04232510509F0DEC0843091057A
:1027B00008F0DAC0FC01EE0FFF1FE05AFE4F019057
:1027C000F081E02D845A9E4FDC018C9190E01DC079
:1027D000332721303105E9F02115310579F0223018
:1027E0003105F9F02330310509F0BEC0E3E2F7E02E
:1027F000E4918E2F90E0E3E2F7E007C0E9E6F7E02E
:10280000E4918E2F90E0E9E6F7E0009709F4ACC080
:10281000A2CFE1E5F7E0E4918E2F90E0E1E5F7E06B
:10282000F4CFE1E4F7E0E4918E2F90E0E1E4F7E00B
:10283000ECCF8430910508F097C0880F991FFC01F8
:10284000E859FE4F0190F081E02D89E090E083CFC0
:1028500082E190E0E1E1F7E07ECF80917B04882384
:1028600009F45ACF853009F457CF8091E80083FDF1
:1028700053CF8091E80082FD82CF8091E80080FFF5
:1028800078CF9091F3008091F2002115310519F075
:102890008830910550F041E0089709F040E08091C0
:1028A000E8008E778093E80064CF44914093F10074
:1028B0003196215031090196E8CF803809F054C093
:1028C0008091E800877F8093E80080917204809374
:1028D000F10092CE811148C010917504123008F0B9
:1028E00043C08091E800877F8093E80010937204D2
:1028F0000E949905112311F084E005C08091E30046
:1029000087FDFACF81E080937B0442E061EC81E0B7
:102910000E94B80542E261EC84E00E94B80542E200
:1029200061EC82E00E94B80542E260EC83E00E9424
:10293000B80542E261EC85E00E94B80580917B0415
:1029400013C080917504813079F481E0933009F0EF
:1029500080E0809371041092E9008091E800877F05
:102960008093E8000E9499058091E80083FF0AC0E7
:102970008091E800877F8093E8008091EB0080627F
:102980008093EB00AA96E3E00C948D300E94EB114B
:102990002FEF84E39CE0215080409040E1F700C09D
:1029A000000088E19CE00FB6F894A8958093600041
:1029B0000FBE90936000FFCF882321F00E94210B6F
:1029C0000E94B3100895882339F090915004982BF9
:1029D000909350040E94B3100895882321F00E9420
:1029E000280B0E94B3100895882339F09091510468
:1029F000982B909351040E94B3100895882379F185
:102A00009CEF980F913A28F40E94360B0E94B31065
:102A1000089590E2980F983050F4877091E001C0CB
:102A2000990F8A95EAF7892F0E94280BEFCF9BE533
:102A3000980F933028F490E080E00E94FE060895FD
:102A400098E5980F973128F490E080E00E94E8061E
:102A50000895803F20F00E9401080E940A10089506
:102A6000FF920F931F93CF93DF93F82E00914B04A7
:102A700010914C040115110509F449C010924A0443
:102A8000109249041092460410924704D8011696F9
:102A9000CD91DC919E013A9521153F4108F4D07EFD
:102AA000D1E0C11101C0D0E0D8011996ED91FC919F
:102AB0001A97309731F01B966D917C9180E00995C3
:102AC000D823DD2339F08CEF8C0F813A30F58C2F31
:102AD0000E94360BFF2099F0E0914B04F0914C04DA
:102AE000808584FD0CC080914804882341F080815A
:102AF00091819C0121503109203B3D45A0F00E946D
:102B0000B31010924C0410924B0410924804C80168
:102B1000CDB7DEB7E5E00C948B300E94B3108C2F5C
:102B20000E94FE14D7CF0E942107E9CFCF93C82F70
:102B30008823A9F08CEF8C0F813A98F4E4E7F1E058
:102B40008191C81709F440C081E0EA37F807C1F75E
:102B50006C2F82E791E00E94CE060E94B310CF91C5
:102B6000089580E28C0F883068F4C77021E030E06F
:102B700001C0220FCA95EAF780915104822B8093FD
:102B80005104EBCFEBE5EC0FE33040F4F0E0E95E0D
:102B9000FE4F808190E00E94FE06E1CFE8E5EC0F59
:102BA000E73150F4F0E0EE0FFF1FE65EFE4F80814C
:102BB00091810E94E806D3CFC03F88F28C2F0E94FB
:102BC000C6080E940A10CBCF8C2F0E94360B0E94A1
:102BD000B310BECF1F93CF93DF93182FD0E0C0E088
:102BE000893311F4C0E5D0E0812F0E94961520971B
:102BF00039F4812F0E94FE14DF91CF911F91089527
:102C00008FE99FE00197F1F700C000002197EFCF17
:102C1000B0E0A0E0EEE0F6E10C946A30EC018AE06E
:102C2000A82E2881222309F48FC02130C9F599816B
:102C30008A81913021F422960E94EA1505C09230D3
:102C400029F422960E9496152196EBCF933021F419
:102C500022960E94FE14F8CF943011F02196F4CF02
:102C6000229630E020E0AE014F5F5F4F8053990B1A
:102C70008A30910550F02150310930F38FE99FE0FF
:102C80000197F1F700C00000F6CFA29EB001A39E0D
:102C9000700D11249C01260F371F8981EA01E3CFB3
:102CA000E22FF0E0E356F84FB490822F8695869598
:102CB000869590E0FC01E357F84FE4902770F12CE3
:102CC000022E02C0F594E7940A94E2F731E0E32281
:102CD000FF24FC01E358F84FC490D12C022E02C00F
:102CE000D594C7940A94E2F731E0C322DD24FC01B5
:102CF000E359F84F049110E002C0159507952A9505
:102D0000E2F701701127E114F10419F081EE0E943D
:102D10009615C114D10419F086EE0E9496158B2DDC
:102D20000E94EA15C114D10419F086EE0E94FE1427
:102D3000E114F10419F081EE0E94FE140115110551
:102D400009F482CF8CE278CFCDB7DEB7EAE00C94FD
:102D50008630B0E0A0E0EFEAF6E10C946C306B0155
:102D6000C42FD22FFC0182818823A9F040934F0405
:102D70000E94C20690934E0480934D04C77081E078
:102D800001C0880FCA95EAF70E94F414CDB7DEB7E8
:102D9000E8E00C94883010914F04141337C08091F0
:102DA0004D0490914E040E94A7067C01C6010E942A
:102DB000050EE816F90650F5C0E2CD0F1D17C1F05B
:102DC00080E2810F883048F4177081E0012E01C045
:102DD000880F0A94EAF70E94ED14C83048F481E0A5
:102DE0009D2F977001C0880F9A95EAF70E94F414FE
:102DF000802F0E94EA15C83048F6D77081E001C0E4
:102E0000880FDA95EAF70E94ED14C0CFC77081E011
:102E100001C0880FCA95EAF7F6CFCF93DF93EC0194
:102E20000E94D00B9E01205E31092830310510F040
:102E3000209741F40E94F4148C2F0E949615DF9184
:102E4000CF9108950E94E314F7CFAAE0B0E0EBE23F
:102E5000F7E10C9468308E010F5F1F4F8AE0F80194
:102E600011928A95E9F798E4E92E91E0F92E68012C
:102E7000AA24A394B12CF70181917F018F3F09F41B
:102E800046C0F894E82FE295EF70F0E021A18F7032
:102E9000A50102C0440F551F8A95E2F7CA01922F7F
:102EA000982B91A392A18095892382A3789400C046
:102EB000EDE4F1E021E030E0912C812C41914F3F95
:102EC00009F467C0A42FA295AF70B0E090968C91E2
:102ED00090E04F7002C0959587954A95E2F780FD86
:102EE00058C0C901882A992A220F331F51E0EC35B6
:102EF000F50721F7F701319780818F3F11F00E948C
:102F00002E0980EA8A95F1F7F60191828082F2E03B
:102F1000CF0ED11C4DE4E41641E0F40609F0ABCF2E
:102F20004AE050E0B80188EF91E00E94B630892B6A
:102F300099F18AE0F801A8EFB1E001900D928A952D
:102F4000E1F781E08093F7010E94C2069093F601B9
:102F50008093F5018091F5019091F6010E94A706FA
:102F60000597F0F04AE050E068EF71E087E192E009
:102F70000E94B630892BC9F08AE0E8EFF1E0A7E1C2
:102F8000B2E001900D928A95E1F781E01092F7018D
:102F900008C090E080E0A6CF8091F7018111DACFE0
:102FA00080E02A96ECE00C94843080E0EFCF68EE6D
:102FB0007EEF90E080E00E94063160E082E090E0E9
:102FC0000E94E83060E083E090E00E94E8301092D8
:102FD000F40160E084E090E00E94E83064E082E286
:102FE00090E00E94E83060E085E090E00E94E830E8
:102FF00060E086E090E00E94E8306FEF87E090E0CC
:103000000E94E83040E050E0BA0188E090E00E9481
:10301000FA3060E08DE090E00E94E83040E050E05F
:10302000BA0188E190E00E94FA3060E087E190E028
:103030000E94E83040E050E0BA018CE190E00E944C
:10304000FA3070E060E080E290E00E94063140E0FB
:1030500050E0BA0188E190E00E94FA3080E00E94DE
:103060003F0D0E94E10D40E050E0BA018FE090E09A
:103070000E94FA3040E050E0BA0183E190E00E9403
:10308000FA300895A7E0B0E0E8E4F8E10C9462308B
:103090007C01DC0113964D915C91149711966C9113
:1030A00011978C910E9492078111ECC061E0C701D9
:1030B0000E94E30E8C01F70182818823E1F0809168
:1030C0005204909153040097B1F00817190799F032
:1030D000FEE08F9FC0011124FC01EA5BFD4F2081BF
:1030E000246020838F5B9D4FDC010D931C930E9415
:1030F000261110925004F7018281882309F499C6A1
:10310000C80182519F45409708F087C68FEF93E032
:103110000E94DA308111A6C06EEED62ED00E0FE6D8
:1031200013E0D11036C019821A821B821C829924A6
:103130009A9468012FEFC21AD20AC8010E94DA30AD
:1031400089831A82882309F48DC0813009F07FC0F9
:10315000580132E0A30EB11CC6010E94DA30C82E1D
:103160008A83882309F47EC0C5010E94DA30D82EF4
:103170008FEF8C0D8330D8F4580143E0A40EB11CBE
:10318000DB82DD2021F0CE0101960E940816850128
:10319000D0CF0115F4E01F0709F464C0C8010E94F4
:1031A000DA30811101C0DA940F5F1F4FBACF8BEF75
:1031B0008C0D833030F5C8010396DB825C01DD2085
:1031C00031F3580154E0A50EB11C0E94DA308C8313
:1031D0008823E9F28B819C818130AFEF9A0710F050
:1031E000982F8827B6E0CB1631F0E7E0CE1631F005
:1031F0000E948B26CCCF0E946526C9CF0E94DF2576
:10320000C6CFF4E0CF12C3CF580124E0A20EB11C08
:10321000C80103960E94DA30DD2021F1882311F1E4
:103220008150990B989E9001999E300D11244D2D3F
:103230004150550BCA01820F931F019708F4A7CF85
:10324000AFE9BFE01197F1F700C00000F6CFCE0163
:1032500001960E94081656019ACF81E00E94C31180
:103260000E9472118091E801877061F0D701129677
:103270008C91882339F08091030282FF03C082E0A1
:103280000E948B112796E2E10C947E3081E00E942F
:103290007E11E6CF82E0FBCF823009F008C6809134
:1032A0003B0290913C02892B09F401C62EE02C9D33
:1032B000C0012D9D900D1124FC01EA5BFD4F208182
:1032C0002E7F20838F5B9D4F0E942611F0C581E0E9
:1032D00080930001C7CF80910001882309F4D4C4F2
:1032E000480120EE821A91084090F30180917D01FF
:1032F000482A80915104482A38E08316910408F046
:1033000086C098012770332781E090E001C0880FC4
:103310002A95EAF7552009F477C0482AD7018D91FC
:103320009C910E944D0B21E030E0F90102C0EE0FAC
:10333000FF1F8A95E2F7FF83EE8320904B043090C5
:103340004C0460907A0170907B011D822D81E22FE8
:10335000F0E0EE0FFF1FEE5FFC4FC080D180C11484
:10336000D10409F4F5C4411005C0D60112968C9120
:10337000811189C0F601838190E02E813F818223F3
:103380009323892B09F47FC08085982F977009F4C7
:1033900087E038E08316910408F053C0552009F403
:1033A0004CC086958170882309F46DC0D601AD901C
:1033B000BC900A151B0519F4552009F464C0C21409
:1033C000D30409F460C0D6011D96ED91FC913097AD
:1033D00021F08081882309F456C0642DC6010E9423
:1033E0007207882309F44FC00A151B0509F0BBC5F5
:1033F0000115110509F4BCC55110BCC5A614B704CC
:1034000009F041C0512CB6C58095482287CF552080
:1034100009F487C410937B0100937A010E94B606D9
:103420006093420470934304809344049093450452
:1034300010924A041092490471CF82FB882780F9C8
:10344000B2CF552001F18170AECF0E94FE14B0C5FD
:103450000497813A910558F46A2D82E791E00E9421
:10346000CE06552009F410C40E94B310FBCE0E9472
:10347000B3108FE39CE90197F1F700C000008A2D9B
:103480000E949615EECF9D819F5F9D835FCFFC01CB
:10349000208131810217130709F0EFC35110EFC3E8
:1034A0001092480480E00E943015EEC3902F812FC7
:1034B00033C4F901858181FF5FC4C9010E940C11E9
:1034C0005BC407E225EE45EE68ED7CE529C506E222
:1034D00021EE40EE63EF7CE523C507E225EE44EEE6
:1034E00064EF7CE51DC506E221EE42EE65EF7CE56A
:1034F00017C508E221E045EE69ED7CE511C5053A06
:10350000FDE51F0709F44FC4D0F401363DE513076C
:1035100009F449C406314CE5140709F07DC58091D2
:1035200051048A7A91E009F490E090937C0169E279
:10353000811165E382E791E00E94CE0695CFC80134
:103540008D5A9D45039730F72EC480910202806208
:1035500007303CE51307B9F1809102028061083021
:103560004CE5140780F18091020280642CC00D307C
:103570005CE5150709F4C0C090F4809102028E7FCB
:103580000B309CE51907F9F0809102028C600C3039
:10359000ACE51A07C0F0809102028D7F14C00F3095
:1035A000BCE51B0709F4B8C008F4AAC00031FCE56B
:1035B0001F0709F4B5C0809102028F7B01312CE511
:1035C000120709F01AC48093020217C40F3F3CE5AA
:1035D000130709F4B3C0A8F50A3F5CE5150709F421
:1035E00079C0C0F404319CE5190709F4B5C008F4AA
:1035F000A1C00531BCE51B0709F0FFC380910202A1
:1036000082FB992790F921E0922790FB82F990FBA9
:1036100083F9D9CF0C3FECE51E0709F475C008F417
:103620005DC00D3F2CE5120709F472C080910302C2
:1036300083600E3F3CE5130709F0DFC3809303026C
:10364000DCC301364DE5140709F491C090F4013054
:103650008DE5180709F489C008F474C060E00230F1
:10366000ADE51A0709F0C9C38EE090E00E94E8308A
:10367000C4C30D3ABDE51B07E9F060F49091020266
:10368000892F8E7F90FF8160053AFDE51F0709F4C1
:103690009ACFB3C30E3A2DE5120751F10F3A3DE52B
:1036A000130709F0AAC390910302892F877F93FF24
:1036B0008860C4CF809103028860C0CF80910202ED
:1036C000826081CF8091020284607DCF809102026E
:1036D000886079CF809103028160B0CF809103022E
:1036E0008260ACCF0E94EB118091020280686BCFA8
:1036F00080910302877FA2CF809102028B7F63CFEC
:1037000080910202877F5FCF809103028E7F96CFE8
:10371000809103028D7F92CF809102028F7E53CFE2
:10372000809102028F7D4FCF0E94EB1180910202A7
:103730008F7749CF80910202837F45CF809103022A
:103740008C7F7CCF80910302982F909591708E7F13
:10375000892B90FB81F972CF0E94EB1190910202AC
:10376000892F97FB87F980582ECF61E07DCF90910C
:103770000202892F8F7E94FF806125CF85E3F0C3FD
:103780000E94EB115FEF84E39CE051508040904039
:10379000E1F700C000000E94E50C8091030282FB6B
:1037A000882780F991E089270E94A711F701868177
:1037B00097810097C1F10E9488098C01F701C280AE
:1037C000B580B2943FE0B3228091E8018770C1F0E8
:1037D000AC2CCC20B1F0812F807F803421F080E2AE
:1037E000800F883068F08091030282FF09C082E078
:1037F0000E948B118091E8018770AA24A394811103
:10380000A12C912E92942FE09222FBE0F91508F45E
:1038100084C0E92DF0E0E05DFE4C0C94553081E071
:10382000C3CF80E0C1CF828100811181882369F0FC
:10383000C8010E946D0ED82E682FC8010E94810B0E
:10384000B8018D2D0E94500EB6CFC8010E944D0BBD
:10385000D82EF6CF212F2F70D22E107F19F0D294B0
:1038600090EFD922CC20B9F0DD2069F080E2800F02
:10387000883010F0011109C080915104D82AD092EB
:1038800051040E94B310802F46C080915004D82A62
:10389000D0925004F6CF802F0E94FE14DD20E9F173
:1038A00080E2800F883010F0011104C08D2D0E943D
:1038B000280B03C08D2D0E94210B0E94B3102DC038
:1038C000312F3F70D32E107F103219F0D29480EF39
:1038D000D822002381F0013009F495C0CC2009F4EE
:1038E0009EC0BB2009F46BC0F701858180FFCBCF60
:1038F0008F70858364C08091030282FD39C0CC2023
:1039000089F1DD2039F080915104D82AD0925104F8
:103910000E94B31080E00E949615292D2850330B89
:103920002430310510F40E941407AA20B1F08091D0
:10393000E80180FD12C0D70112961C9285958595ED
:1039400085950E94C311C7010E9442188091E80129
:103950008595859585950E947E1160E0C7010E943E
:10396000E30E90CC80E00E94FE14DD20B1F29ECFE9
:10397000CC2049F1B11004C08091F3018D2920C001
:1039800041E0B41210C082FFC8CF8091F301D82A61
:10399000D81619F20E94C2069093F2018093F101A9
:1039A000D092F301BACF55E0B512E6CF0E94160BC4
:1039B00090917D018D2D892B891380937D018D2D13
:1039C0000E94F414AACFB11003C00E94160B12C0BB
:1039D00081E0B81213C0809151048D2109F49DCF6C
:1039E0000E94160B90917D018D2D8095892389135E
:1039F00080937D018D2D0E94ED148FCF95E0B91637
:103A000009F48BCFE2CFCC2029F0A5E0AB1508F468
:103A100084CFD5CFB4E0BB1508F47FCFEBCFBB206C
:103A200049F3093349F4FFEF27EE33E0F15020402A
:103A30003040E1F700C00000802F0E94FE146DCFDF
:103A4000812F86958695837061F0813009F065CF6E
:103A5000C8019370C11002C090E080E00E94E806A7
:103A60005CCFC8019370C11002C090E080E00E945A
:103A7000FE0653CF802FCC2029F00E94C6080E945A
:103A80000A104BCF0E940108FACF812F837089F56D
:103A9000C11043CF402F429546954770440F440FC5
:103AA000802F8F70042E01C0880F0A94EAF7202F10
:103AB000207104FF07C02FE030E001C0220F4A95BB
:103AC000EAF72095169516951370123069F050F4A8
:103AD0003091F401113029F0822B83230E94E611EA
:103AE0001CCF832B822BFACF282B8091F4018227C5
:103AF000F5CF8695CC2011F0812F8170882309F4B1
:103B00000CCF402F429546954770440F440F802FAD
:103B10008F70042E01C0880F0A94EAF7202F2071BD
:103B200004FF07C02FE030E001C0220F4A95EAF7FA
:103B30002095169516951370123069F050F4309157
:103B40007C04113029F0822B83230E946D11E5CE75
:103B5000832B822BFACF282B80917C048227F5CFF0
:103B60001F70CC2029F0812F0E94C311802F28CFF5
:103B7000802F0E94ED14812F0E947E11CECE023F35
:103B800089F160F4003FB9F0013F81F0CC2009F4E5
:103B900064C0B11078CE812F8F7128C0033F49F1E6
:103BA000043FA1F78091030282FD2FC0812F8F7106
:103BB000CC2011F31BC0CC2081F044E04B1508F45D
:103BC000ACCE1F7181E090E0012E01C0880F0A94F5
:103BD000EAF790917C048927B8CF55E05B1508F48B
:103BE0009CCEEFCF812F8F71C110C6CF0E94C31121
:103BF00094CE80E0CC2009F4A8CF1F7181E0012E83
:103C000001C0880F0A94EAF7A0CFCC20C9F08091B8
:103C1000E8018770843041F40E942F0B812F8F714F
:103C20000E947E11A12C79CE84E08B15D8F31F71F0
:103C3000812F0E94C31163E0812F0E94CF11F2CF28
:103C400094E09B1530F40E942F0B64E0812F8F715C
:103C5000F4CF81E00E948B11E5CFBB2059F00933EE
:103C600009F0EACEAFEFB7EEE3E0A150B040E0409C
:103C7000E1F7E0CE812F8F717FCF552029F0DC0155
:103C800018968C9185FF0ECCC80197558F3F9105F2
:103C900011F008F02BC15801BB24BEE00B9FF001CE
:103CA00011249F012F5B3D4F6901D70112968C9122
:103CB000EA5BFD4F908180FB90F99083882309F4A3
:103CC000F8CB0E94C2069093110280931002F60175
:103CD00082818F5F82838091500490915104892B5F
:103CE00083838091F30184830680F781E02D3097F0
:103CF00031F0D6011C966D917C91C60109958EE03C
:103D00008A9DF0018B9DF00D1124EF5BFD4F8581A5
:103D100081FFCCCB90E080E09093520480935304D9
:103D20002BC080917A0190917B010817190781F4CB
:103D300010927B0110927A01109242041092430477
:103D4000109244041092450410924A0410924904BF
:103D500080914B0490914C04009709F495CFA8E012
:103D60008A16910408F093CB642D0E94720781118A
:103D700003C081E00E943015D70112968C918823F0
:103D800009F4E4C010924F040330BDE51B0708F0AE
:103D9000B6CB0A3FECE51E0730F4C80182509C45C3
:103DA000449708F0B7CB0E942C0F909303028093A6
:103DB000020202314CE5140709F4B6CC08F006CC37
:103DC00009308CE5180709F48DCC08F0D0CB05300C
:103DD000ACE51A0709F47ACC08F0B7CB0330ECE570
:103DE0001E0709F46BCC08F06DCC80910202816053
:103DF00002302CE5120709F4E6CB60910202109123
:103E0000030284E090E00E94E830612F82E290E0BB
:103E10000E94E8300E94EB1125CA0031FFE51F0720
:103E200009F41BCA01312FE5120709F040C082E0F6
:103E300015CA00313FE5130709F428CA01314FE5DF
:103E4000140709F427CA6801E7E5DE1AFFEFCF1669
:103E5000D10409F060F567E372E08C2D0E94F10D4A
:103E6000892B29F58EE08C9DF0018D9DF00D11249C
:103E7000EF5BFD4F8281813009F00ECA80913702DD
:103E800090913802892B99F08091390290913A02F1
:103E9000892B69F080913B0290913C0220913D0278
:103EA00030913E02822B932B892B09F4FFC9D70155
:103EB00012965C90552009F40ECA0F35BDE51B071C
:103EC00009F405CA0036EDE51E0751F00E35FDE593
:103ED0001F0709F000CA80910001882309F4F7C97F
:103EE0001092000180E00E943015BCC9033F5CE5E0
:103EF000150709F4ECCAC0F4083D9CE5190709F45C
:103F0000E0CA093DACE51A0709F4F3CA073DBCE570
:103F10001B0709F031CF06E221EE41EE67ED7CE5AB
:103F2000C7010E94A9169EC9053FECE51E0709F4CA
:103F3000DACA08F4D2CA063F2CE5120709F01CCFF2
:103F400007E225EE46EE66EF7CE5EACF06313CE57A
:103F5000130709F02BCC80917C0181110FCC89E2F1
:103F60000E94360B81CAA114B10409F047CA512C32
:103F7000B12CA12C80E00E943015D0924C04C0924C
:103F80004B0481E080934804F601858180934604C8
:103F900051100EC0AB2861F0F601808191819C0127
:103FA00024503109213A310508F04FCA0E94360BDE
:103FB000D6011696AD90BC90C5019A9581159F418A
:103FC00010F4E0EEBE2277247394C5010197803B84
:103FD0009D4508F0712CD6011996ED91FC911A9728
:103FE000309731F01B966D917C9181E00995782294
:103FF000772079F0F601868197810E94D00B80931B
:104000004704C501F8E08F16910408F021CA0E9408
:1040100021070E94B31025CA0A354DE5140709F49B
:10402000FECB68F401158CE5180709F4A9CB0E3D09
:104030001C4509F0BBCB0E94D7170E94C6140C3553
:10404000ADE51A0709F4A9CB08F4EBCB073A1D45F7
:10405000A1F3ACCBB0E0A0E0E0E3F0E20C946C3074
:104060008091A101807F31F480919E01C091E50192
:10407000811107C0CDB7DEB7E8E00C9488302196F7
:10408000C7708091A4018C17A9F3F0909C01E09077
:104090009D01C0909F01D090A001A6016E2D8F2D93
:1040A0000E949207D0E08111EACF8E0183E0000FD9
:1040B000111F8A95E1F7F801EB55FE4F81818E11B2
:1040C000DECF80818F11DBCF82818111D8CFE38059
:1040D000F480EC18FD0860E08CE991E00E94E30EAA
:1040E0000E94050EE816F90650F68091A1018F7026
:1040F00080618093A101F801E655FE4F80818F70A9
:10410000806180838CE991E00E9442180E94430BF9
:10411000B1CFA5E1B0E0EFE8F0E20C9464308C019F
:1041200085E0F801DE01519601900D928A95E1F744
:10413000F801E2804CE9A42E41E0B42E80909F016A
:104140009090A001A40160919D0180919C010E942A
:104150009207682E8111A1C1F801C380D480F0902C
:104160009E01C601881999094C01FF2009F447C135
:104170004080518060E0C5010E94E30E0E94050E60
:104180007090A1018816990608F0E1C040919F0146
:104190005091A001B0909C01A0909D01872D807F3F
:1041A0006A2D09F080C08B2D0E949207FE2C811190
:1041B00024C0F80181818A1120C080818B111DC02B
:1041C0002091A2013091A301868197812817390798
:1041D000A1F4E11012C0872D8F7080618093A1013E
:1041E0008CE991E00E9442188091A101F801858339
:1041F0008F2D6596E0E10C948030A601652D842D0D
:104200000E949207811122C081E08E25F82FF17063
:10421000DF2E80FF3EC08091E5012091A401821332
:1042200017C0498A5A8A89899A890E949C0E292F27
:1042300022952F70223008F1243030F59F7009F15B
:10424000F8019581907FE9F4F62CD2CF80E0DECFA3
:1042500090E0FC0133E0EE0FFF1F3A95E1F7EB55DC
:10426000FE4F3181531206C03081431203C03281A8
:10427000E3120FC001968770D2CF9F7011F0882390
:1042800019F3805E883000F3C8010E9442186D2C3B
:10429000DBCFEE2009F4ACCF8091A1018160809347
:1042A000A101F12CA5CF8B2D0E94920781111FC077
:1042B000F80181818A111BC080818B1118C0209167
:1042C000A2013091A301868197812817390779F4DB
:1042D000E1100DC07582C8010E94421888E0F80103
:1042E000ACE9B1E001900D928A95E1F781CFC80168
:1042F0000E94A90E882339F1EE2029F18091A101B5
:104300008032A0F020919C0130919D013A8729874D
:104310001B86DD86CC868E878091A2019091A301B9
:10432000988B8F87CE0109960E94421888E0F80189
:10433000ACE9B1E001900D928A95E1F70E942A2044
:10434000FF24F39455CFC8010E944218F9CF872D5E
:10435000807F51F48CE991E00E94421888E0F501D9
:1043600011928A95E9F79DCF90909C0180909D01D4
:1043700040919F015091A001682D892D0E949207C4
:1043800081111CC0F8018181881118C080818911B8
:1043900015C02091A2013091A30186819781281731
:1043A000390761F4E1100AC07582C8010E94421801
:1043B00088E0F50111928A95E9F71ACFC8010E94A9
:1043C000A90E882309F4BFCFEE2009F4BCCF809159
:1043D000A101803208F4AACF20919C0130919D0167
:1043E0003A8329831B82DD82CC828E838091A20155
:1043F0009091A30198878F83CE01019695CF60E0BD
:104400008CE991E00E94E30E0E94050E8816990641
:1044100078F6FE2CEE2009F496CFE0909C01D09027
:104420009D0140919F015091A0016D2D8E2D0E9404
:104430009207811124C0F80181818D1120C08081F3
:104440008E111DC02091A2013091A3018681978118
:1044500028173907A1F49091A10190FD3FCF907FDB
:1044600009F43CCF8091A1018583903F09F433CFBB
:10447000982F907F905F8F70892B85832CCFC801F8
:104480000E94A90E811152CF8091A1018160809379
:10449000A101C8010E944218ABCEEE2009F453CF0F
:1044A000C8010E94A90EF82E882309F44CCF88E099
:1044B000F801ACE9B1E001900D928A95E1F78091A5
:1044C0009C0190919D010E949C0E0E942A2090CEFA
:1044D000A0E1B0E0EEE6F2E20C94723029873A8770
:1044E0004B875C876D877E878F87988BCE01099677
:1044F0000E94892081112FC088E0FE013996DE01DB
:10450000119601900D928A95E1F74C855D856A853B
:1045100089850E94920781111EC0A091A401B0E07C
:10452000CD010196877099272091E501281719067A
:10453000E1F093E0AA0FBB1F9A95E1F7AB55BE4F90
:1045400098E0FE01319601900D929A95E1F78093E3
:10455000A4010E94430B8091E5019091A40189136D
:1045600012C06096E2E00C948E300E94EB11109223
:10457000A4011092E50188E0ECE9F1E0DF011D9271
:104580008A95E9F7E8CFB8E08B9FC00111248B55DD
:104590009E4F0E948920882321F38091E50190E0BD
:1045A0000196877099278093E501D5CFEF92FF920E
:1045B0000F931F93CF93DF9380919503882361F02E
:1045C000C09194038CE0F82E80919503C81748F0B1
:1045D0001092950310929403CDB7DEB7E6E00C94E9
:1045E0008A30EE24E394EC0EE09294030C2F10E05A
:1045F000CF9DE0011124CA56DC4F4B815C8169815B
:1046000088810E94920781111DC08E819F81892B14
:1046100021F488859985019651F4288139814A8150
:104620005B816C817D818E819F810E946822F09EDA
:10463000F001F19EF00D1124EA56FC4F1482138212
:1046400010925004CE2DC0CF10923904109238042D
:1046500010920D0180913704809336040E94CB079D
:104660000E94D6220895B0E0A0E0E9E3F3E20C94C2
:104670006330C091360497E0892E01E010E02CE011
:10468000322E3EEF932E44244394809137048C13B2
:1046900009C00E94D6220E94CB07CDB7DEB7E1E168
:1046A0000C947F30D0E0FE01EE0FFF1FE25DFB4F68
:1046B00080819181889ED001899EB00D1124AA50DD
:1046C000BC4F14962C911497211158C0509095030B
:1046D000E6E9F3E030E020E0712C5D01251508F0FB
:1046E0004BC0E284F384D501CD90DC906FEF7FEF77
:1046F000612C462D50E0DA01AA0FBB1FAC0DBD1D89
:104700000D90BC91A02D109731F0EA16FB0609F42C
:10471000BA016394EECF6F3F7607A9F1D80102C0CA
:10472000AA0FBB1F6A95E2F77A2AB801062C02C0CD
:10473000660F771F0A94E2F7AB01415051097416D6
:104740001506F9F4329EF001339EF00D1124EA565D
:10475000FC4F889ED001899EB00D1124AA50BC4FF9
:1047600012962D913C9113973783268390829182E4
:104770009187808715964C920E949D072196C37061
:1047800084CF148213822F5F3F4F3C96A7CFA9E1BD
:10479000B0E0EDECF3E20C946230498B5A8B6B8BFA
:1047A0007C8B8D8B6111109250041D861E861F8696
:1047B000188A85E0FE017196DE01199601900D922E
:1047C0008A95E1F78091030282FF1CC00E94C20615
:1047D0002091E6013091E701821B930B88389341C9
:1047E00020F08091E80182FFE6C10E94C20620917C
:1047F000F1013091F201821B930B8838934110F044
:104800000E94160B4C855D856A8589850E949207FA
:10481000811111C061E0CE0109960E94E30E6C0186
:104820008B8547EFC4164CE5D40681F4882321F12B
:1048300081E080930D0129853A854B855C856D85E6
:104840007E858F8598890E946822C3C068EFC6164E
:104850006CE5D60629F4882379F00E942423EBCF57
:1048600079EFC7167CE5D70639F4882329F08091C3
:104870000D018111F2CFDCCF06EF13E0E12CB12C5A
:10488000A12C88248394912C2EEF522E44244394FF
:10489000F8014081518166246A94762C20E0822FB1
:1048A00090E0FC01EE0FFF1FE40FF51F60817181A6
:1048B0006115710531F0C616D70609F43C012F5F6A
:1048C000EECFF12CFFEF6F167F0609F444C0F8011C
:1048D0004481F0900D018F2D411180E0F82FF1708F
:1048E000FF2EF801258086819B85992309F4F2C06B
:1048F000FF2009F4EFC0211014C0A401062C01C050
:10490000440F0A94EAF7842B868380919203909156
:104910009303C29730F462E370E070939303609363
:104920009203C40102C0880F991F2A95E2F70197EC
:10493000F80126812817190671F4809138049091A6
:104940003904009709F449C00E94A706C39708F4E8
:1049500044C0F8014482EF28FFEFAF1ABF0A095F95
:104960001F4F28E0A216B10409F092CF8B8588234F
:1049700009F40CC1EE2009F409C10E94C20690930B
:1049800039048093380480919503883010F591E0C4
:10499000980F9093950398E0FE013996DE011196E9
:1049A00001900D929A95E1F73CE0839FC00111249C
:1049B0008A569C4F28E0FE013196DC0101900D9251
:1049C0002A95E1F72FEF3FEFFC0131872087D3864F
:1049D000C2866996E2E10C947E3080913604509153
:1049E0003704982FF0E0E0E0851314C0909336046C
:1049F000E017F10709F4AFCF90E0FC01EE0FFF1FC5
:104A0000E25DFB4FB182A08201968370992780936B
:104A10003704A1CF282E312CF101EE0FFF1FE25DEC
:104A2000FB4F20813181F7E0F29FD001F39FB00D61
:104A30001124AA50BC4F2D913C911197398F288F8A
:104A400040E020E030E0E32FF0E0EE0FFF1F688D44
:104A5000798DE60FF71F6080718061147104E1F0B9
:104A6000F8010190F081E02DFF8BEE8B20E005C076
:104A70006616770609F44F2D2F5FE22FF0E0EE0F58
:104A8000FF1F6E897F89E60FF71F608171816115B5
:104A9000710571F73F5FD7CF4423C9F0F8012317A1
:104AA00008F0FD0144820E171F0721F4909336048D
:104AB000F42E51CF981305C0AE17BF0711F49F5FB6
:104AC000937091012F5F3F4F822F83708DCFF0E065
:104AD000E0E0F7CF90E0211020C0B40102C0660FE3
:104AE000771F2A95E2F79B0121503109821793071E
:104AF00031F4442309F448C0C5010E949D07C40154
:104B0000062C01C0880F0A94EAF7982F9095F801B7
:104B1000868189238683F22C1ECF9C01062C02C03D
:104B2000359527950A94E2F7A90141705527BC01F4
:104B30006150710986239723892B11F5452B01F1CB
:104B4000F80182819381892BC1F01B821C821D8216
:104B50001E8259825A820E94C2068160582F9D830C
:104B60008C83F801828193818F83988729813A8190
:104B70004B816D817E810E946822F8011582BFCF32
:104B8000F22FF1702F2EBBCF2F2CB9CF909136047E
:104B900080913704981731F00E943323EE2009F4F6
:104BA0004ACE17CF0E94D6221092390410923804B0
:104BB0000E94CB07F3CF82E00E948B1116CEA5E0B6
:104BC000B0E0E5EEF5E20C9470308C0190938F0329
:104BD00080938E03011580E21807C0F4802F0E9495
:104BE000FE14C8010E94D00B9801205E31092830C4
:104BF000310518F00115110531F40E94ED142596C8
:104C0000E4E00C948C300E94DC14F9CF80EF8983AF
:104C10008A831B820E94C2068160782F9D838C83C9
:104C200049815A816B818D810E94C723E8CF0F9300
:104C30001F93CF93DF938C01EB0167E372E08C2F1E
:104C40000E94F10D892B71F4DD27C15DDD4F888154
:104C5000F801128218828330F1F048F4813059F063
:104C6000823081F0DF91CF911F910F9108958430B0
:104C7000B9F08530B9F780913702909138020097EA
:104C800089F306C08091390290913A02009799F316
:104C90000E94DF25E7CF80913B0290913C02F6CF46
:104CA00080913D0290913E02009791F7209137024A
:104CB000309138028091390290913A0221153105E4
:104CC000F1F2009729F7C901E3CFA5E0B0E0EBE6E8
:104CD000F6E20C94723090938F0380938E038115CB
:104CE00020E2920730F40E940D172596E2E00C9422
:104CF0008E3080EF89838A8381E08B830E94C20695
:104D00008160782F9D838C8349815A816B818D814D
:104D10000E94C723EACFCF93DF93EC010E94652660
:104D2000CE010E94DF25DF91CF9108950F931F934D
:104D3000CF93DF938C01862F67E372E00E94F10D21
:104D4000892BB1F4C0913702D0913802209781F0BD
:104D5000F8018281833051F4CE010E948B26CE016E
:104D60000E948B26CE010E948B2602C08430D0F791
:104D7000DF91CF911F910F9108950F931F93CF93C0
:104D8000DF938C01EB0167E372E08C2F0E94F10D41
:104D9000892B09F05CC0FE01FF27D80112968C9187
:104DA0001297E15DFD4F8130B9F415969C9192FF09
:104DB00002C080830AC090FFFCCF82E08083809194
:104DC000390290913A020097B9F48091370290919C
:104DD00038020097E1F110C08230B9F515968C9138
:104DE00082FD28C080FD0BC083E0808380913B0260
:104DF00090913C02009701F10E94652628C084E052
:104E0000808380913D0290913E020097A9F78091A6
:104E10003702909138020097F9F00E948B2680911A
:104E2000390290913A02009739F7809137029091B8
:104E30003802E2CF85E0808380913702909138027A
:104E4000009729F00E948B26F0CF86E08083DF91C7
:104E5000CF911F910F9108958091390290913A025C
:104E6000B8CF1F920F920FB60F9211242F933F933A
:104E70004F935F936F937F938F939F93AF93BF9362
:104E8000CF93DF93EF93FF93D091E900DF70809190
:104E9000EC00C82FC17080FDC0E81092E90080913D
:104EA000F000877F8093F00078940E94F7111092B1
:104EB000E9008091F00088608093F000CD2BCF70E6
:104EC000C093E900FF91EF91DF91CF91BF91AF9136
:104ED0009F918F917F916F915F914F913F912F9112
:104EE0000F900FBE0F901F9018951F920F920FB644
:104EF0000F9211242F933F934F935F936F937F9360
:104F00008F939F93AF93BF93EF93FF938091E100B3
:104F100082FF15C08091E20082FF11C08091E10004
:104F20008B7F8093E100209164042F5F822F62E3E6
:104F30000E943530992309F4C0C020936404809105
:104F4000DA0080FF28C08091D80080FF24C08091C3
:104F5000DA008E7F8093DA008091D90080FFE3C071
:104F600080E189BD82E189BD09B400FEFDCF81E009
:104F700080937B0482E896E00E945504809165044A
:104F8000811109C00E94F7040E94EA058091E200A5
:104F900084608093E2008091E10080FF1BC08091DB
:104FA000E20080FF17C08091E2008E7F8093E200D4
:104FB0008091E20080618093E2008091D80080625D
:104FC0008093D80019BC85E080937B048AE896E042
:104FD0000E9455048091E10084FF2FC08091E2007F
:104FE00084FF2BC080E189BD82E189BD89B5982FFE
:104FF000917080FFFBCF8091D8008F7D8093D80087
:105000008091E1008F7E8093E1008091E2008F7EAD
:105010008093E2008091E20081608093E2008091C1
:105020007204882309F489C084E080937B048EE8AD
:1050300096E00E94550480917B048091E10083FFFB
:105040002BC08091E20083FF27C08091E100877F21
:105050008093E10082E080937B041092720480913F
:10506000E1008E7F8093E1008091E2008E7F80934B
:10507000E2008091E20080618093E20042E060E023
:1050800080E00E94B8058091F00088608093F00075
:1050900082E996E00E945504FF91EF91BF91AF9194
:1050A0009F918F917F916F915F914F913F912F9140
:1050B0000F900FBE0F901F9018951092640480916E
:1050C0006304882309F43BCF80917B048430C1F4CE
:1050D0009091E9009F702091EC00822F817020FD5B
:1050E00080E8892B95E09093E9009091EB0090FF88
:1050F00004C09091EE0097FD08C08F708093E90086
:10510000109263041CCF1092F1009091E80095FD7D
:10511000FACF9091E80090FFF0CF9091E8009E7751
:105120009093E800EACF19BC10927B0486E896E0E1
:105130000E945504109265042ECF8091E30087FDF4
:1051400093E090937B0473CF78941F921FB61F92C5
:1051500011248F939F93AF93BF9380915B049091A1
:105160005C04A0915D04B0915E040196A11DB11D87
:1051700080935B0490935C04A0935D04B0935E0401
:10518000BF91AF919F918F911F901FBE1F90189557
:105190001F921FB61F9211248F939F93AF93BF93BB
:1051A00080915A04811113C080915B0490915C043A
:1051B000A0915D04B0915E044196A11DB11D809344
:1051C0005B0490935C04A0935D04B0935E04BF9174
:1051D000AF919F918F911F901FBE1F901895CDB7D3
:1051E000DEB7E6970FB6F894DEBF0FBECDBF85B72A
:1051F000806885BF85B7806885BF84B7877F84BF97
:105200000FB6F894A8958091600088618093600043
:10521000109260000FBE80E890E00FB6F894809383
:105220006100909361000FBE81E09CE0909371015A
:10523000809370010E94DC070E94C60F0E943A0F03
:105240000E94F7040E94EA058091E2008460809346
:10525000E200789480917B048823A1F01091E9000A
:105260001F709091EC00892F817090FD80E8182BC1
:105270001092E9008091E80083FD0E94F7111F70F1
:105280001093E90082E084BD93E095BD9AEF97BD4D
:1052900080936E000E94130F811102C00E94E10DE5
:1052A00008E411E03DE4E32E31E0F32ED8018D91C6
:1052B0008D018F3F11F00E942E09E016F106B1F723
:1052C0000DE411E02CE5E22E21E0F22EF8018191AF
:1052D0008F018F3F11F00E942E09E016F106B1F701
:1052E0008AE0E7E1F2E0DF01282F1D922A95E9F735
:1052F000E8EFF1E0DF011D928A95E9F790E080E0A8
:105300000E94E230883E9E4F21F40E94130F8111CB
:1053100002C00E94D71782E090E00E94DA308093AA
:1053200024020E942C0F90930302809302020E9499
:105330002517EFEFF6E721E0E150F0402040E1F7DC
:1053400000C000000E9425178091170280FF08C04E
:105350006FEF7FEF90E080E00E9406310E94E50C45
:1053600083E090E00E94DA300E94E61181E091E053
:10537000909357048093560490E4292E3324339459
:105380008E010F5F1F4F80917B04853089F481EB84
:1053900091E00E945504B0E1EB2E82E1F82E80915D
:1053A0007B04853009F460C00E94EB110E94140751
:1053B0000E942517A6E0CA2EA2E0DA2EA7E1B2E0ED
:1053C000BEABADAB40E152E0F601219131918D9140
:1053D0009D914E175F0709F481C028173907A9F37B
:1053E0008091240281FD3FC2712CADA9BEA9ED9030
:1053F000FD90BEABADABF601A190B1906F01AE14C4
:10540000BF0459F1AE24BF24612C88248394912CCD
:10541000C50188219921892BB1F068AA79AA21E0D8
:10542000C70188219921892B09F420E02AAB0E9429
:10543000C2068160782F9CAB8BAB48A959A96AA999
:105440008CA90E94C7236394880C991CFFE06F12FB
:10545000DFCFF6013297F182E082739425E0721279
:10546000C4CF0E94B6065CC080917B04843019F1E1
:1054700010925A0488E190E00FB6F894A8958093B2
:1054800060000FBE2092600083B7817F846083BF7D
:1054900083B7816083BF7894889583B78E7F83BFFD
:1054A0000FB6F894A89580916000886180936000A1
:1054B000109260000FBE80917104882309F46FCFB1
:1054C0000E942517E7E1F2E081919191892B09F083
:1054D000A3C592E0E132F907B9F761CF2817390780
:1054E00009F07ECF0E94C2067C0180910402909157
:1054F0000502E816F906A1F08FEF8BA78CA71DA671
:105500000E94C2068160782F9FA78EA74BA55CA53D
:105510006DA58FA50E94C723F0920502E0920402B8
:105520008091490490914A04892B09F43EC040912E
:105530003E0450913F0460914004709141042FB7A4
:10554000F89480915B0490915C04A0915D04B0910B
:105550005E042FBF841B950BA60BB70B40913A043A
:1055600050913B0460913C0470913D048417950771
:10557000A607B707D0F08091490490914A040E9491
:105580000D1710924A041092490410923E04109292
:105590003F04109240041092410410923A04109279
:1055A0003B0410923C0410923D04E0905204F090B1
:1055B0005304E114F104E9F080911002909111027A
:1055C0000E94A7066C01C7010E94050E8C159D055F
:1055D00080F4809152043EE0839FC0011124FC01BD
:1055E000EA5BFD4F208122FD04C08F5B9D4F0E942E
:1055F000261180910D01882301F18091380490914A
:1056000039040097D1F00E94A706209192033091AF
:1056100093032817390788F4909136048091370452
:10562000981709F45FC10E943323109293031092DC
:105630009203109239041092380486E0E9E2F2E015
:10564000D80101900D928A95E1F710922B021092E9
:105650002C0210922D0210922E028B819C81892B9C
:1056600009F44AC080912702909128020E94A7065F
:105670009C0190912302992309F4F2C4253131054C
:10568000D8F19F3F19F09F5F90932302FB80FF208A
:1056900059F00E94A6089FEF1F140CF491E0899F17
:1056A000802D112480932B02FC80FF2059F00E9452
:1056B000A6089FEF1F140CF491E0899F802D112400
:1056C00080932C0230912B023323B1F020912C02D5
:1056D000222391F045EB3403C0011124992309F4EE
:1056E0000AC190932B0245EB24039001112433232C
:1056F00009F404C130932C028D819E81892B09F419
:105700004AC080912502909126020E94A7069C0122
:1057100090912102992309F49EC421353105D8F1D5
:105720009F3F19F09F5F90932102FD80FF2059F069
:105730000E9484089FEF1F140CF491E0899F802D34
:10574000112480932D02FE80FF2059F00E948408CE
:105750009FEF1F140CF491E0899F802D11248093FA
:105760002E0230912D023323B1F020912E022223FC
:1057700091F045EB3403C0011124992309F4C1C011
:1057800090932D0245EB240390011124332309F457
:10579000BBC030932E0246E050E0B80189E292E0AF
:1057A0000E94B630892B61F480912B0290912C02DB
:1057B000892B90912D02892B90912E02892B11F02B
:1057C0000E940A1086E0F801A9E2B2E001900D9271
:1057D0008A95E1F70E94140790911202891721F02F
:1057E000809312020E94B60680917B04843009F0F7
:1057F000CACD83E08093E9008091E80082FFC3CDA9
:105800008091E80090E085FF0AC00E94160540E202
:10581000E42EF12C6801882309F483C091E0809183
:10582000E8008B778093E800992309F4ACCDE090F1
:105830009003F09091038981E114F10409F47FC091
:105840008E3F09F000C18A81833020F0855083307B
:1058500008F0F9C0EA81EE3008F0F5C0F0E0E45C51
:10586000FE4C0C94553085EC91E00E94550477E194
:10587000E72E72E0F72E912C812CE0ECAE2EE1E0C9
:10588000BE2EF7EB6F2EF1E07F2E9F928F92BF928C
:10589000AF920E94EE048DEB91E00E945504F70157
:1058A00080814180F2E0EF0EF11C0E94B80B582E6F
:1058B000842D0E94B80B5F928F937F926F920E940B
:1058C000EE0485EB91E00E9455042FEF821A920AB4
:1058D0000FB6F894DEBF0FBECDBF95E089169104D8
:1058E000A1F682CD0E94D62210923904109238047B
:1058F0000E94CB07A2CE30922B02F5CE30922C0222
:10590000FBCE30922D023ECF30922E0244CF8091BA
:10591000F100D6018D936D01B1E0EB1AF10809F4A5
:105920007DCF8091E80085FDF2CF8091E8008B77F4
:105930008093E8000E941605882399F36FCF8C307E
:1059400009F4E1C050F5843009F4C4C058F4823041
:1059500009F468C008F0AFC0813009F45FC08FEF70
:10596000898371C0863009F4CBC008F4BEC08B3087
:10597000B1F780918C0390918D03892B09F463C05A
:10598000C8010E9471053FEF41EE84E03150404074
:105990008040E1F700C00000E1CC803109F4E2C0B2
:1059A00088F58E3009F4B5C008F4B0C080918C033E
:1059B00090918D03892B09F446C0EC80F12C3DE1D8
:1059C000E316F10408F03FC0CA80DB80DC24CD245C
:1059D000DC245801E00EF11EC60181599C4FEA14E7
:1059E000FB0489F141E9C416D10428F4D5011496C9
:1059F0006C910E94E830BFEFAB1ABB0AEFEFCE1AF2
:105A0000DE0AEACF823109F4B2C008F4AEC08331B5
:105A100009F4D6C08E3F09F0A2CF1CCF1A8289E0CC
:105A20008B8311C08A81823009F40CC3833079F0F2
:105A3000813009F094CF0E94B6060E945B306B83E0
:105A40007C838D839E83C8010E9471059CCC8091CC
:105A50008C0390918D03892BB1F380911702909163
:105A600018029827892798279C838B838091190295
:105A700090911A029827892798279E838D83809179
:105A80001B0290911C0298278927982798878F835B
:105A900080911D0290911E029827892798279A8746
:105AA000898780911F029091200298278927982743
:105AB0009C878B87C8CF8A81823009F050CF6B8159
:105AC0007C818D819E810E945B3086E290E00E9405
:105AD000E830B9CF4C816B818A810E94210E9827D2
